{
  "contractName": "auction",
  "abi": [
    {
      "inputs": [],
      "stateMutability": "nonpayable",
      "type": "constructor"
    },
    {
      "inputs": [],
      "name": "auctioneer",
      "outputs": [
        {
          "internalType": "address payable",
          "name": "",
          "type": "address"
        }
      ],
      "stateMutability": "view",
      "type": "function",
      "constant": true
    },
    {
      "inputs": [],
      "name": "etblock",
      "outputs": [
        {
          "internalType": "uint256",
          "name": "",
          "type": "uint256"
        }
      ],
      "stateMutability": "view",
      "type": "function",
      "constant": true
    },
    {
      "inputs": [],
      "name": "highestBid",
      "outputs": [
        {
          "internalType": "uint256",
          "name": "",
          "type": "uint256"
        }
      ],
      "stateMutability": "view",
      "type": "function",
      "constant": true
    },
    {
      "inputs": [],
      "name": "highestbidder",
      "outputs": [
        {
          "internalType": "address payable",
          "name": "",
          "type": "address"
        }
      ],
      "stateMutability": "view",
      "type": "function",
      "constant": true
    },
    {
      "inputs": [],
      "name": "recipient",
      "outputs": [
        {
          "internalType": "address payable",
          "name": "",
          "type": "address"
        }
      ],
      "stateMutability": "view",
      "type": "function",
      "constant": true
    },
    {
      "inputs": [],
      "name": "state",
      "outputs": [
        {
          "internalType": "enum auction.aucState",
          "name": "",
          "type": "uint8"
        }
      ],
      "stateMutability": "view",
      "type": "function",
      "constant": true
    },
    {
      "inputs": [],
      "name": "stblock",
      "outputs": [
        {
          "internalType": "uint256",
          "name": "",
          "type": "uint256"
        }
      ],
      "stateMutability": "view",
      "type": "function",
      "constant": true
    },
    {
      "inputs": [],
      "name": "bid",
      "outputs": [
        {
          "internalType": "bool",
          "name": "",
          "type": "bool"
        }
      ],
      "stateMutability": "payable",
      "type": "function",
      "payable": true
    },
    {
      "inputs": [],
      "name": "cancelAuc",
      "outputs": [
        {
          "internalType": "bool",
          "name": "",
          "type": "bool"
        }
      ],
      "stateMutability": "nonpayable",
      "type": "function"
    },
    {
      "inputs": [],
      "name": "finalizeAuc",
      "outputs": [
        {
          "internalType": "bool",
          "name": "",
          "type": "bool"
        }
      ],
      "stateMutability": "nonpayable",
      "type": "function"
    },
    {
      "inputs": [],
      "name": "withdraw",
      "outputs": [],
      "stateMutability": "nonpayable",
      "type": "function"
    }
  ],
  "bytecode": "0x608060405234801561001057600080fd5b50336000806101000a81548173ffffffffffffffffffffffffffffffffffffffff021916908373ffffffffffffffffffffffffffffffffffffffff1602179055504360018190555060f060015461006791906100d6565b6002819055506000600360006101000a81548160ff021916908360028111156100935761009261012c565b5b021790555061015b565b6000819050919050565b7f4e487b7100000000000000000000000000000000000000000000000000000000600052601160045260246000fd5b60006100e18261009d565b91506100ec8361009d565b9250827fffffffffffffffffffffffffffffffffffffffffffffffffffffffffffffffff03821115610121576101206100a7565b5b828201905092915050565b7f4e487b7100000000000000000000000000000000000000000000000000000000600052602160045260246000fd5b610e308061016a6000396000f3fe60806040526004361061009c5760003560e01c80639d957d45116100645780639d957d4514610157578063a118be0214610182578063c19d93fb146101ad578063d57bde79146101d8578063dcbfb0ff14610203578063e07600bd1461022e5761009c565b80631998aeef146100a15780632352f320146100bf5780633ccfd60b146100ea5780635ec2c7bf1461010157806366d003ac1461012c575b600080fd5b6100a9610259565b6040516100b69190610a51565b60405180910390f35b3480156100cb57600080fd5b506100d46104ed565b6040516100e19190610a51565b60405180910390f35b3480156100f657600080fd5b506100ff6105ba565b005b34801561010d57600080fd5b506101166107fc565b6040516101239190610aad565b60405180910390f35b34801561013857600080fd5b50610141610820565b60405161014e9190610aad565b60405180910390f35b34801561016357600080fd5b5061016c610846565b6040516101799190610ae1565b60405180910390f35b34801561018e57600080fd5b5061019761084c565b6040516101a49190610ae1565b60405180910390f35b3480156101b957600080fd5b506101c2610852565b6040516101cf9190610b73565b60405180910390f35b3480156101e457600080fd5b506101ed610865565b6040516101fa9190610ae1565b60405180910390f35b34801561020f57600080fd5b5061021861086b565b6040516102259190610aad565b60405180910390f35b34801561023a57600080fd5b50610243610891565b6040516102509190610a51565b60405180910390f35b60008060009054906101000a900473ffffffffffffffffffffffffffffffffffffffff1673ffffffffffffffffffffffffffffffffffffffff163373ffffffffffffffffffffffffffffffffffffffff1614156102eb576040517f08c379a00000000000000000000000000000000000000000000000000000000081526004016102e290610beb565b60405180910390fd5b600154431161032f576040517f08c379a000000000000000000000000000000000000000000000000000000000815260040161032690610c57565b60405180910390fd5b600254431115610374576040517f08c379a000000000000000000000000000000000000000000000000000000000815260040161036b90610cc3565b60405180910390fd5b670de0b6b3a76400003410156103bf576040517f08c379a00000000000000000000000000000000000000000000000000000000081526004016103b690610d55565b60405180910390fd5b600060028111156103d3576103d2610afc565b5b600360009054906101000a900460ff1660028111156103f5576103f4610afc565b5b146103ff57600080fd5b600034600660003373ffffffffffffffffffffffffffffffffffffffff1673ffffffffffffffffffffffffffffffffffffffff1681526020019081526020016000205461044c9190610da4565b905080600660003373ffffffffffffffffffffffffffffffffffffffff1673ffffffffffffffffffffffffffffffffffffffff168152602001908152602001600020819055506004548111156104e5578060048190555033600560006101000a81548173ffffffffffffffffffffffffffffffffffffffff021916908373ffffffffffffffffffffffffffffffffffffffff1602179055505b600191505090565b60008060009054906101000a900473ffffffffffffffffffffffffffffffffffffffff1673ffffffffffffffffffffffffffffffffffffffff163373ffffffffffffffffffffffffffffffffffffffff161461054857600080fd5b60028081111561055b5761055a610afc565b5b600360009054906101000a900460ff16600281111561057d5761057c610afc565b5b141561058857600080fd5b6001600360006101000a81548160ff021916908360028111156105ae576105ad610afc565b5b02179055506001905090565b60008054906101000a900473ffffffffffffffffffffffffffffffffffffffff1673ffffffffffffffffffffffffffffffffffffffff163373ffffffffffffffffffffffffffffffffffffffff161415610649576040517f08c379a000000000000000000000000000000000000000000000000000000000815260040161064090610beb565b60405180910390fd5b6001600281111561065d5761065c610afc565b5b600360009054906101000a900460ff16600281111561067f5761067e610afc565b5b14806106bd575060028081111561069957610698610afc565b5b600360009054906101000a900460ff1660028111156106bb576106ba610afc565b5b145b6106c657600080fd5b6000600660003373ffffffffffffffffffffffffffffffffffffffff1673ffffffffffffffffffffffffffffffffffffffff16815260200190815260200160002054905033600760006101000a81548173ffffffffffffffffffffffffffffffffffffffff021916908373ffffffffffffffffffffffffffffffffffffffff160217905550600760009054906101000a900473ffffffffffffffffffffffffffffffffffffffff1673ffffffffffffffffffffffffffffffffffffffff166108fc829081150290604051600060405180830381858888f193505050501580156107b3573d6000803e3d6000fd5b506000600660003373ffffffffffffffffffffffffffffffffffffffff1673ffffffffffffffffffffffffffffffffffffffff1681526020019081526020016000208190555050565b60008054906101000a900473ffffffffffffffffffffffffffffffffffffffff1681565b600760009054906101000a900473ffffffffffffffffffffffffffffffffffffffff1681565b60025481565b60015481565b600360009054906101000a900460ff1681565b60045481565b600560009054906101000a900473ffffffffffffffffffffffffffffffffffffffff1681565b6000600160028111156108a7576108a6610afc565b5b600360009054906101000a900460ff1660028111156108c9576108c8610afc565b5b14156108d457600080fd5b60008054906101000a900473ffffffffffffffffffffffffffffffffffffffff1673ffffffffffffffffffffffffffffffffffffffff163373ffffffffffffffffffffffffffffffffffffffff161461092c57600080fd5b60008054906101000a900473ffffffffffffffffffffffffffffffffffffffff1673ffffffffffffffffffffffffffffffffffffffff166108fc6004549081150290604051600060405180830381858888f19350505050158015610994573d6000803e3d6000fd5b50600060066000600560009054906101000a900473ffffffffffffffffffffffffffffffffffffffff1673ffffffffffffffffffffffffffffffffffffffff1673ffffffffffffffffffffffffffffffffffffffff1681526020019081526020016000208190555060006004819055506002600360006101000a81548160ff02191690836002811115610a2a57610a29610afc565b5b02179055506001905090565b60008115159050919050565b610a4b81610a36565b82525050565b6000602082019050610a666000830184610a42565b92915050565b600073ffffffffffffffffffffffffffffffffffffffff82169050919050565b6000610a9782610a6c565b9050919050565b610aa781610a8c565b82525050565b6000602082019050610ac26000830184610a9e565b92915050565b6000819050919050565b610adb81610ac8565b82525050565b6000602082019050610af66000830184610ad2565b92915050565b7f4e487b7100000000000000000000000000000000000000000000000000000000600052602160045260246000fd5b60038110610b3c57610b3b610afc565b5b50565b6000819050610b4d82610b2b565b919050565b6000610b5d82610b3f565b9050919050565b610b6d81610b52565b82525050565b6000602082019050610b886000830184610b64565b92915050565b600082825260208201905092915050565b7f6f776e65722063616e6e6f742062696400000000000000000000000000000000600082015250565b6000610bd5601083610b8e565b9150610be082610b9f565b602082019050919050565b60006020820190508181036000830152610c0481610bc8565b9050919050565b7f41756374696f6e20686173206e6f742073746172746564207965740000000000600082015250565b6000610c41601b83610b8e565b9150610c4c82610c0b565b602082019050919050565b60006020820190508181036000830152610c7081610c34565b9050919050565b7f536f7272792061756374696f6e20656e64656421000000000000000000000000600082015250565b6000610cad601483610b8e565b9150610cb882610c77565b602082019050919050565b60006020820190508181036000830152610cdc81610ca0565b9050919050565b7f4269642076616c7565206d7573742062652067726561746572207468616e206f60008201527f7220657175616c20746f20312065746865720000000000000000000000000000602082015250565b6000610d3f603283610b8e565b9150610d4a82610ce3565b604082019050919050565b60006020820190508181036000830152610d6e81610d32565b9050919050565b7f4e487b7100000000000000000000000000000000000000000000000000000000600052601160045260246000fd5b6000610daf82610ac8565b9150610dba83610ac8565b9250827fffffffffffffffffffffffffffffffffffffffffffffffffffffffffffffffff03821115610def57610dee610d75565b5b82820190509291505056fea2646970667358221220c14874f12f4bd5cafc25e753e50c85bd5a7ad4612542e2848bb72fec00b4481464736f6c634300080b0033",
  "immutableReferences": {},
  "source": "//SPDX-License-Identifier: GPL-3.0\r\npragma solidity >=0.5.0 <0.9.0;\r\n\r\ncontract auction{\r\n    address payable public auctioneer;\r\n    uint public stblock;\r\n    uint public etblock;\r\n\r\n    enum aucState{started,cancelled,ended}\r\n    aucState public state;\r\n\r\n    uint public highestBid;\r\n    address payable public highestbidder;\r\n\r\n    mapping(address=>uint) bids;\r\n\r\n    constructor(){\r\n        auctioneer=payable(msg.sender);\r\n        stblock=block.number;\r\n        etblock=stblock+240;\r\n        state=aucState.started;\r\n    }\r\n\r\n     modifier notowner(){\r\n        require (msg.sender != auctioneer,\"owner cannot bid\");\r\n        _;\r\n    }\r\n\r\n      modifier owner(){\r\n        require (msg.sender == auctioneer);\r\n        _;\r\n    }\r\n     modifier started(){\r\n        require(block.number >stblock,\"Auction has not started yet\");\r\n        _;\r\n    }\r\n     modifier beforeEnding(){\r\n        require(block.number<=etblock,\"Sorry auction ended!\");\r\n        _;\r\n    }\r\n\r\n    function bid() payable public notowner started beforeEnding returns(bool){\r\n        require(msg.value>=1 ether,\"Bid value must be greater than or equal to 1 ether\");\r\n        require(state==aucState.started);\r\n        uint current_bid=bids[msg.sender]+msg.value;\r\n        bids[msg.sender]=current_bid;\r\n        if(current_bid>highestBid)\r\n        {\r\n            highestBid=current_bid;\r\n            highestbidder=payable(msg.sender);\r\n        }\r\n        return true;\r\n    }\r\n\r\n    function cancelAuc() public returns(bool){\r\n        require(msg.sender==auctioneer);\r\n        require(state!=aucState.ended);\r\n        state=aucState.cancelled;\r\n        return true;\r\n    }\r\n\r\n\r\n    function finalizeAuc() public returns(bool){\r\n        require(state!=aucState.cancelled);\r\n        require(msg.sender==auctioneer);\r\n        auctioneer.transfer(highestBid);\r\n        bids[highestbidder]=0;\r\n        highestBid=0;\r\n        state=aucState.ended;\r\n        return true;\r\n    }\r\n    address payable public recipient;\r\n    function withdraw() public notowner{\r\n      require(state==aucState.cancelled || state==aucState.ended);\r\n      uint value=bids[msg.sender];\r\n      recipient=payable(msg.sender);\r\n      recipient.transfer(value);\r\n      bids[msg.sender]=0;\r\n    }\r\n}",
  "sourcePath": "C:\\Users\\sharm\\Desktop\\auction3\\contracts\\Auction.sol",
  "compiler": {
    "name": "solc",
    "version": "0.8.11+commit.d7f03943.Emscripten.clang"
  },
  "schemaVersion": "3.4.11",
  "updatedAt": "2023-01-29T08:24:27.730Z",
  "networkType": "ethereum",
  "devdoc": {
    "kind": "dev",
    "methods": {},
    "version": 1
  },
  "userdoc": {
    "kind": "user",
    "methods": {},
    "version": 1
  }
}